{
  "contractName": "ERC20Tornado",
  "abi": [
    {
      "inputs": [
        {
          "internalType": "contract IVerifier",
          "name": "_verifier",
          "type": "address"
        },
        {
          "internalType": "contract IHasher",
          "name": "_hasher",
          "type": "address"
        },
        {
          "internalType": "uint256",
          "name": "_denomination",
          "type": "uint256"
        },
        {
          "internalType": "uint32",
          "name": "_merkleTreeHeight",
          "type": "uint32"
        },
        {
          "internalType": "contract IERC20",
          "name": "_token",
          "type": "address"
        }
      ],
      "stateMutability": "nonpayable",
      "type": "constructor"
    },
    {
      "anonymous": false,
      "inputs": [
        {
          "indexed": true,
          "internalType": "bytes32",
          "name": "commitment",
          "type": "bytes32"
        },
        {
          "indexed": false,
          "internalType": "uint32",
          "name": "leafIndex",
          "type": "uint32"
        },
        {
          "indexed": false,
          "internalType": "uint256",
          "name": "timestamp",
          "type": "uint256"
        }
      ],
      "name": "Deposit",
      "type": "event"
    },
    {
      "anonymous": false,
      "inputs": [
        {
          "indexed": false,
          "internalType": "address",
          "name": "to",
          "type": "address"
        },
        {
          "indexed": false,
          "internalType": "bytes32",
          "name": "nullifierHash",
          "type": "bytes32"
        },
        {
          "indexed": true,
          "internalType": "address",
          "name": "relayer",
          "type": "address"
        },
        {
          "indexed": false,
          "internalType": "uint256",
          "name": "fee",
          "type": "uint256"
        }
      ],
      "name": "Withdrawal",
      "type": "event"
    },
    {
      "inputs": [],
      "name": "FIELD_SIZE",
      "outputs": [
        {
          "internalType": "uint256",
          "name": "",
          "type": "uint256"
        }
      ],
      "stateMutability": "view",
      "type": "function",
      "constant": true
    },
    {
      "inputs": [],
      "name": "ROOT_HISTORY_SIZE",
      "outputs": [
        {
          "internalType": "uint32",
          "name": "",
          "type": "uint32"
        }
      ],
      "stateMutability": "view",
      "type": "function",
      "constant": true
    },
    {
      "inputs": [],
      "name": "ZERO_VALUE",
      "outputs": [
        {
          "internalType": "uint256",
          "name": "",
          "type": "uint256"
        }
      ],
      "stateMutability": "view",
      "type": "function",
      "constant": true
    },
    {
      "inputs": [
        {
          "internalType": "bytes32",
          "name": "",
          "type": "bytes32"
        }
      ],
      "name": "commitments",
      "outputs": [
        {
          "internalType": "bool",
          "name": "",
          "type": "bool"
        }
      ],
      "stateMutability": "view",
      "type": "function",
      "constant": true
    },
    {
      "inputs": [],
      "name": "currentRootIndex",
      "outputs": [
        {
          "internalType": "uint32",
          "name": "",
          "type": "uint32"
        }
      ],
      "stateMutability": "view",
      "type": "function",
      "constant": true
    },
    {
      "inputs": [],
      "name": "denomination",
      "outputs": [
        {
          "internalType": "uint256",
          "name": "",
          "type": "uint256"
        }
      ],
      "stateMutability": "view",
      "type": "function",
      "constant": true
    },
    {
      "inputs": [
        {
          "internalType": "bytes32",
          "name": "_commitment",
          "type": "bytes32"
        }
      ],
      "name": "deposit",
      "outputs": [],
      "stateMutability": "payable",
      "type": "function",
      "payable": true
    },
    {
      "inputs": [
        {
          "internalType": "uint256",
          "name": "",
          "type": "uint256"
        }
      ],
      "name": "filledSubtrees",
      "outputs": [
        {
          "internalType": "bytes32",
          "name": "",
          "type": "bytes32"
        }
      ],
      "stateMutability": "view",
      "type": "function",
      "constant": true
    },
    {
      "inputs": [],
      "name": "getLastRoot",
      "outputs": [
        {
          "internalType": "bytes32",
          "name": "",
          "type": "bytes32"
        }
      ],
      "stateMutability": "view",
      "type": "function",
      "constant": true
    },
    {
      "inputs": [
        {
          "internalType": "contract IHasher",
          "name": "_hasher",
          "type": "address"
        },
        {
          "internalType": "bytes32",
          "name": "_left",
          "type": "bytes32"
        },
        {
          "internalType": "bytes32",
          "name": "_right",
          "type": "bytes32"
        }
      ],
      "name": "hashLeftRight",
      "outputs": [
        {
          "internalType": "bytes32",
          "name": "",
          "type": "bytes32"
        }
      ],
      "stateMutability": "pure",
      "type": "function",
      "constant": true
    },
    {
      "inputs": [],
      "name": "hasher",
      "outputs": [
        {
          "internalType": "contract IHasher",
          "name": "",
          "type": "address"
        }
      ],
      "stateMutability": "view",
      "type": "function",
      "constant": true
    },
    {
      "inputs": [
        {
          "internalType": "bytes32",
          "name": "_root",
          "type": "bytes32"
        }
      ],
      "name": "isKnownRoot",
      "outputs": [
        {
          "internalType": "bool",
          "name": "",
          "type": "bool"
        }
      ],
      "stateMutability": "view",
      "type": "function",
      "constant": true
    },
    {
      "inputs": [
        {
          "internalType": "bytes32",
          "name": "_nullifierHash",
          "type": "bytes32"
        }
      ],
      "name": "isSpent",
      "outputs": [
        {
          "internalType": "bool",
          "name": "",
          "type": "bool"
        }
      ],
      "stateMutability": "view",
      "type": "function",
      "constant": true
    },
    {
      "inputs": [
        {
          "internalType": "bytes32[]",
          "name": "_nullifierHashes",
          "type": "bytes32[]"
        }
      ],
      "name": "isSpentArray",
      "outputs": [
        {
          "internalType": "bool[]",
          "name": "spent",
          "type": "bool[]"
        }
      ],
      "stateMutability": "view",
      "type": "function",
      "constant": true
    },
    {
      "inputs": [],
      "name": "levels",
      "outputs": [
        {
          "internalType": "uint32",
          "name": "",
          "type": "uint32"
        }
      ],
      "stateMutability": "view",
      "type": "function",
      "constant": true
    },
    {
      "inputs": [],
      "name": "nextIndex",
      "outputs": [
        {
          "internalType": "uint32",
          "name": "",
          "type": "uint32"
        }
      ],
      "stateMutability": "view",
      "type": "function",
      "constant": true
    },
    {
      "inputs": [
        {
          "internalType": "bytes32",
          "name": "",
          "type": "bytes32"
        }
      ],
      "name": "nullifierHashes",
      "outputs": [
        {
          "internalType": "bool",
          "name": "",
          "type": "bool"
        }
      ],
      "stateMutability": "view",
      "type": "function",
      "constant": true
    },
    {
      "inputs": [
        {
          "internalType": "uint256",
          "name": "",
          "type": "uint256"
        }
      ],
      "name": "roots",
      "outputs": [
        {
          "internalType": "bytes32",
          "name": "",
          "type": "bytes32"
        }
      ],
      "stateMutability": "view",
      "type": "function",
      "constant": true
    },
    {
      "inputs": [],
      "name": "token",
      "outputs": [
        {
          "internalType": "contract IERC20",
          "name": "",
          "type": "address"
        }
      ],
      "stateMutability": "view",
      "type": "function",
      "constant": true
    },
    {
      "inputs": [],
      "name": "verifier",
      "outputs": [
        {
          "internalType": "contract IVerifier",
          "name": "",
          "type": "address"
        }
      ],
      "stateMutability": "view",
      "type": "function",
      "constant": true
    },
    {
      "inputs": [
        {
          "internalType": "bytes",
          "name": "_proof",
          "type": "bytes"
        },
        {
          "internalType": "bytes32",
          "name": "_root",
          "type": "bytes32"
        },
        {
          "internalType": "bytes32",
          "name": "_nullifierHash",
          "type": "bytes32"
        },
        {
          "internalType": "address payable",
          "name": "_recipient",
          "type": "address"
        },
        {
          "internalType": "address payable",
          "name": "_relayer",
          "type": "address"
        },
        {
          "internalType": "uint256",
          "name": "_fee",
          "type": "uint256"
        },
        {
          "internalType": "uint256",
          "name": "_refund",
          "type": "uint256"
        }
      ],
      "name": "withdraw",
      "outputs": [],
      "stateMutability": "payable",
      "type": "function",
      "payable": true
    },
    {
      "inputs": [
        {
          "internalType": "uint256",
          "name": "i",
          "type": "uint256"
        }
      ],
      "name": "zeros",
      "outputs": [
        {
          "internalType": "bytes32",
          "name": "",
          "type": "bytes32"
        }
      ],
      "stateMutability": "pure",
      "type": "function",
      "constant": true
    }
  ],
  "bytecode": "0x60c0604052600380546001600160401b03191690553480156200002157600080fd5b506040516200257f3803806200257f833981810160405260a08110156200004757600080fd5b5080516020820151604083015160608401516080909401519293919290919084848484808363ffffffff8216620000b05760405162461bcd60e51b81526004018080602001828103825260238152602001806200255c6023913960400191505060405180910390fd5b60208263ffffffff16106200010c576040805162461bcd60e51b815260206004820152601e60248201527f5f6c6576656c732073686f756c64206265206c657373207468616e2033320000604482015290519081900360640190fd5b6000805463ffffffff191663ffffffff8416178155606082901b6001600160601b0319166080525b8263ffffffff168163ffffffff1610156200017d576200015a63ffffffff821662000246565b63ffffffff82166000908152600160208190526040909120919091550162000134565b506200019363ffffffff60001984011662000246565b6000805260026020527fac33ff75c19e70fe83507db0d683fd3465c996598dc972688b7ace676c89077b555050600160045581620002035760405162461bcd60e51b8152600401808060200182810382526025815260200180620025376025913960400191505060405180910390fd5b5060609290921b6001600160601b03191660a05250600555600880546001600160a01b0319166001600160a01b039290921691909117905550620008d492505050565b6000816200027657507f2fe54c60d3acabf3343a35b6eba15db4821b340f76e741e2249685ed4899af6c620008cf565b8160011415620002a857507f256a6135777eee2fd26f54b8b7037a25439d5235caee224154186d2b8a52e31d620008cf565b8160021415620002da57507f1151949895e82ab19924de92c40a3d6f7bcb60d92b00504b8199613683f0c200620008cf565b81600314156200030c57507f20121ee811489ff8d61f09fb89e313f14959a0f28bb428a20dba6b0b068b3bdb620008cf565b81600414156200033e57507f0a89ca6ffa14cc462cfedb842c30ed221a50a3d6bf022a6a57dc82ab24c157c9620008cf565b81600514156200037057507f24ca05c2b5cd42e890d6be94c68d0689f4f21c9cec9c0f13fe41d566dfb54959620008cf565b8160061415620003a257507f1ccb97c932565a92c60156bdba2d08f3bf1377464e025cee765679e604a7315c620008cf565b8160071415620003d457507f19156fbd7d1a8bf5cba8909367de1b624534ebab4f0f79e003bccdd1b182bdb4620008cf565b81600814156200040657507f261af8c1f0912e465744641409f622d466c3920ac6e5ff37e36604cb11dfff80620008cf565b81600914156200043757507e58459724ff6ca5a1652fcbc3e82b93895cf08e975b19beab3f54c217d1c007620008cf565b81600a14156200046957507f1f04ef20dee48d39984d8eabe768a70eafa6310ad20849d4573c3c40c2ad1e30620008cf565b81600b14156200049b57507f1bea3dec5dab51567ce7e200a30f7ba6d4276aeaa53e2686f962a46c66d511e5620008cf565b81600c1415620004cd57507f0ee0f941e2da4b9e31c3ca97a40d8fa9ce68d97c084177071b3cb46cd3372f0f620008cf565b81600d1415620004ff57507f1ca9503e8935884501bbaf20be14eb4c46b89772c97b96e3b2ebf3a36a948bbd620008cf565b81600e14156200053157507f133a80e30697cd55d8f7d4b0965b7be24057ba5dc3da898ee2187232446cb108620008cf565b81600f14156200056357507f13e6d8fc88839ed76e182c2a779af5b2c0da9dd18c90427a644f7e148a6253b6620008cf565b81601014156200059557507f1eb16b057a477f4bc8f572ea6bee39561098f78f15bfb3699dcbb7bd8db61854620008cf565b8160111415620005c757507f0da2cb16a1ceaabf1c16b838f7a9e3f2a3a3088d9e0a6debaa748114620696ea620008cf565b8160121415620005f957507f24a3b3d822420b14b5d8cb6c28a574f01e98ea9e940551d2ebd75cee12649f9d620008cf565b81601314156200062b57507f198622acbd783d1b0d9064105b1fc8e4d8889de95c4c519b3f635809fe6afc05620008cf565b81601414156200065d57507f29d7ed391256ccc3ea596c86e933b89ff339d25ea8ddced975ae2fe30b5296d4620008cf565b81601514156200068f57507f19be59f2f0413ce78c0c3703a3a5451b1d7f39629fa33abd11548a76065b2967620008cf565b8160161415620006c157507f1ff3f61797e538b70e619310d33f2a063e7eb59104e112e95738da1254dc3453620008cf565b8160171415620006f357507f10c16ae9959cf8358980d9dd9616e48228737310a10e2b6b731c1a548f036c48620008cf565b81601814156200072557507f0ba433a63174a90ac20992e75e3095496812b652685b5e1a2eae0b1bf4e8fcd1620008cf565b81601914156200075757507f019ddb9df2bc98d987d0dfeca9d2b643deafab8f7036562e627c3667266a044c620008cf565b81601a14156200078957507f2d3c88b23175c5a5565db928414c66d1912b11acf974b2e644caaac04739ce99620008cf565b81601b1415620007bb57507f2eab55f6ae4e66e32c5189eed5c470840863445760f5ed7e7b69b2a62600f354620008cf565b81601c1415620007ec57507e2df37a2642621802383cf952bf4dd1f32e05433beeb1fd41031fb7eace979d620008cf565b81601d14156200081e57507f104aeb41435db66c3e62feccc1d6f5d98d0a0ed75d1374db457cf462e3a1f427620008cf565b81601e14156200085057507f1f3c6fd858e9a7d4b0d1f38e256a09d81d5a5e3c963987e2d4b814cfab7c6ebb620008cf565b81601f14156200088257507f2c7a07d20dff79d01fecedc1134284a8d08436606c93693b67e333f671bf69cc620008cf565b6040805162461bcd60e51b815260206004820152601360248201527f496e646578206f7574206f6620626f756e647300000000000000000000000000604482015290519081900360640190fd5b919050565b60805160601c60a05160601c611c2f62000908600039806106ed52806108e85250806113fb528061163d5250611c2f6000f3fe6080604052600436106101355760003560e01c8063b214faa5116100ab578063e82955881161006f578063e8295588146104bc578063ec732959146104e6578063ed33639f146104fb578063f178e47c14610510578063fc0c546a1461053a578063fc7e9c6f1461054f57610135565b8063b214faa514610421578063ba70f7571461043e578063c2b40ae414610453578063cd87a3b41461047d578063e5285dcc1461049257610135565b80636d9833e3116100fd5780636d9833e314610299578063839df945146102c35780638bca6d16146102ed5780638ea3099e1461030257806390eeb02b146103415780639fa12d0b1461035657610135565b806317cc915c1461013a57806321a0adb6146101785780632b7ac3f314610213578063414a37ba146102445780634ecf518b1461026b575b600080fd5b34801561014657600080fd5b506101646004803603602081101561015d57600080fd5b5035610564565b604080519115158252519081900360200190f35b610211600480360360e081101561018e57600080fd5b810190602081018135600160201b8111156101a857600080fd5b8201836020820111156101ba57600080fd5b803590602001918460018302840111600160201b831117156101db57600080fd5b91935091508035906020810135906001600160a01b03604082013581169160608101359091169060808101359060a00135610579565b005b34801561021f57600080fd5b506102286108e6565b604080516001600160a01b039092168252519081900360200190f35b34801561025057600080fd5b5061025961090a565b60408051918252519081900360200190f35b34801561027757600080fd5b5061028061091c565b6040805163ffffffff9092168252519081900360200190f35b3480156102a557600080fd5b50610164600480360360208110156102bc57600080fd5b5035610928565b3480156102cf57600080fd5b50610164600480360360208110156102e657600080fd5b503561099a565b3480156102f957600080fd5b506102596109af565b34801561030e57600080fd5b506102596004803603606081101561032557600080fd5b506001600160a01b0381351690602081013590604001356109b5565b34801561034d57600080fd5b50610280610b83565b34801561036257600080fd5b506103d16004803603602081101561037957600080fd5b810190602081018135600160201b81111561039357600080fd5b8201836020820111156103a557600080fd5b803590602001918460208302840111600160201b831117156103c657600080fd5b509092509050610b8f565b60408051602080825283518183015283519192839290830191858101910280838360005b8381101561040d5781810151838201526020016103f5565b505050509050019250505060405180910390f35b6102116004803603602081101561043757600080fd5b5035610c2e565b34801561044a57600080fd5b50610259610d4f565b34801561045f57600080fd5b506102596004803603602081101561047657600080fd5b5035610d6a565b34801561048957600080fd5b50610280610d7c565b34801561049e57600080fd5b50610164600480360360208110156104b557600080fd5b5035610d81565b3480156104c857600080fd5b50610259600480360360208110156104df57600080fd5b5035610d96565b3480156104f257600080fd5b506102596113d5565b34801561050757600080fd5b506102286113f9565b34801561051c57600080fd5b506102596004803603602081101561053357600080fd5b503561141d565b34801561054657600080fd5b5061022861142f565b34801561055b57600080fd5b5061028061143e565b60066020526000908152604090205460ff1681565b600260045414156105d1576040805162461bcd60e51b815260206004820152601f60248201527f5265656e7472616e637947756172643a207265656e7472616e742063616c6c00604482015290519081900360640190fd5b600260045560055482111561062d576040805162461bcd60e51b815260206004820152601a60248201527f4665652065786365656473207472616e736665722076616c7565000000000000604482015290519081900360640190fd5b60008581526006602052604090205460ff1615610691576040805162461bcd60e51b815260206004820152601f60248201527f546865206e6f746520686173206265656e20616c7265616479207370656e7400604482015290519081900360640190fd5b61069a86610928565b6106eb576040805162461bcd60e51b815260206004820152601c60248201527f43616e6e6f742066696e6420796f7572206d65726b6c6520726f6f7400000000604482015290519081900360640190fd5b7f00000000000000000000000000000000000000000000000000000000000000006001600160a01b031663695ef6f989896040518060c001604052808b60001c81526020018a60001c8152602001896001600160a01b03168152602001886001600160a01b03168152602001878152602001868152506040518463ffffffff1660e01b8152600401808060200183600660200280838360005b8381101561079c578181015183820152602001610784565b505050509050018281038252858582818152602001925080828437600081840152601f19601f820116905080830192505050945050505050602060405180830381600087803b1580156107ee57600080fd5b505af1158015610802573d6000803e3d6000fd5b505050506040513d602081101561081857600080fd5b5051610864576040805162461bcd60e51b815260206004820152601660248201527524b73b30b634b2103bb4ba34323930bb90383937b7b360511b604482015290519081900360640190fd5b6000858152600660205260409020805460ff1916600117905561088984848484611451565b604080516001600160a01b038681168252602082018890528183018590529151918516917fe9e508bad6d4c3227e881ca19068f099da81b5164dd6d62b2eaf1e8bc6c349319181900360600190a250506001600455505050505050565b7f000000000000000000000000000000000000000000000000000000000000000081565b600080516020611b2f83398151915281565b60005463ffffffff1681565b60008161093757506000610995565b60035463ffffffff16805b63ffffffff811660009081526002602052604090205484141561096a57600192505050610995565b63ffffffff81166109795750601e5b6000190163ffffffff8082169083161415610942576000925050505b919050565b60076020526000908152604090205460ff1681565b60055481565b6000600080516020611b2f8339815191528310610a19576040805162461bcd60e51b815260206004820181905260248201527f5f6c6566742073686f756c6420626520696e7369646520746865206669656c64604482015290519081900360640190fd5b600080516020611b2f8339815191528210610a655760405162461bcd60e51b8152600401808060200182810382526021815260200180611b0e6021913960400191505060405180910390fd5b6040805163f47d33b560e01b8152600481018590526000602482018190528251869391926001600160a01b0389169263f47d33b592604480840193829003018186803b158015610ab457600080fd5b505afa158015610ac8573d6000803e3d6000fd5b505050506040513d6040811015610ade57600080fd5b5080516020909101519092509050600080516020611b2f8339815191528483089150856001600160a01b031663f47d33b583836040518363ffffffff1660e01b81526004018083815260200182815260200192505050604080518083038186803b158015610b4b57600080fd5b505afa158015610b5f573d6000803e3d6000fd5b505050506040513d6040811015610b7557600080fd5b5051925050505b9392505050565b60035463ffffffff1681565b60608167ffffffffffffffff81118015610ba857600080fd5b50604051908082528060200260200182016040528015610bd2578160200160208202803683370190505b50905060005b82811015610c2757610bfb848483818110610bef57fe5b90506020020135610d81565b15610c1f576001828281518110610c0e57fe5b911515602092830291909101909101525b600101610bd8565b5092915050565b60026004541415610c86576040805162461bcd60e51b815260206004820152601f60248201527f5265656e7472616e637947756172643a207265656e7472616e742063616c6c00604482015290519081900360640190fd5b600260045560008181526007602052604090205460ff1615610cd95760405162461bcd60e51b8152600401808060200182810382526021815260200180611b4f6021913960400191505060405180910390fd5b6000610ce48261156b565b6000838152600760205260409020805460ff191660011790559050610d076116df565b6040805163ffffffff83168152426020820152815184927fa945e51eec50ab98c161376f0db4cf2aeba3ec92755fe2fcd388bdbbb80ff196928290030190a250506001600455565b60035463ffffffff1660009081526002602052604090205490565b60026020526000908152604090205481565b601e81565b60009081526006602052604090205460ff1690565b600081610dc457507f2fe54c60d3acabf3343a35b6eba15db4821b340f76e741e2249685ed4899af6c610995565b8160011415610df457507f256a6135777eee2fd26f54b8b7037a25439d5235caee224154186d2b8a52e31d610995565b8160021415610e2457507f1151949895e82ab19924de92c40a3d6f7bcb60d92b00504b8199613683f0c200610995565b8160031415610e5457507f20121ee811489ff8d61f09fb89e313f14959a0f28bb428a20dba6b0b068b3bdb610995565b8160041415610e8457507f0a89ca6ffa14cc462cfedb842c30ed221a50a3d6bf022a6a57dc82ab24c157c9610995565b8160051415610eb457507f24ca05c2b5cd42e890d6be94c68d0689f4f21c9cec9c0f13fe41d566dfb54959610995565b8160061415610ee457507f1ccb97c932565a92c60156bdba2d08f3bf1377464e025cee765679e604a7315c610995565b8160071415610f1457507f19156fbd7d1a8bf5cba8909367de1b624534ebab4f0f79e003bccdd1b182bdb4610995565b8160081415610f4457507f261af8c1f0912e465744641409f622d466c3920ac6e5ff37e36604cb11dfff80610995565b8160091415610f7357507e58459724ff6ca5a1652fcbc3e82b93895cf08e975b19beab3f54c217d1c007610995565b81600a1415610fa357507f1f04ef20dee48d39984d8eabe768a70eafa6310ad20849d4573c3c40c2ad1e30610995565b81600b1415610fd357507f1bea3dec5dab51567ce7e200a30f7ba6d4276aeaa53e2686f962a46c66d511e5610995565b81600c141561100357507f0ee0f941e2da4b9e31c3ca97a40d8fa9ce68d97c084177071b3cb46cd3372f0f610995565b81600d141561103357507f1ca9503e8935884501bbaf20be14eb4c46b89772c97b96e3b2ebf3a36a948bbd610995565b81600e141561106357507f133a80e30697cd55d8f7d4b0965b7be24057ba5dc3da898ee2187232446cb108610995565b81600f141561109357507f13e6d8fc88839ed76e182c2a779af5b2c0da9dd18c90427a644f7e148a6253b6610995565b81601014156110c357507f1eb16b057a477f4bc8f572ea6bee39561098f78f15bfb3699dcbb7bd8db61854610995565b81601114156110f357507f0da2cb16a1ceaabf1c16b838f7a9e3f2a3a3088d9e0a6debaa748114620696ea610995565b816012141561112357507f24a3b3d822420b14b5d8cb6c28a574f01e98ea9e940551d2ebd75cee12649f9d610995565b816013141561115357507f198622acbd783d1b0d9064105b1fc8e4d8889de95c4c519b3f635809fe6afc05610995565b816014141561118357507f29d7ed391256ccc3ea596c86e933b89ff339d25ea8ddced975ae2fe30b5296d4610995565b81601514156111b357507f19be59f2f0413ce78c0c3703a3a5451b1d7f39629fa33abd11548a76065b2967610995565b81601614156111e357507f1ff3f61797e538b70e619310d33f2a063e7eb59104e112e95738da1254dc3453610995565b816017141561121357507f10c16ae9959cf8358980d9dd9616e48228737310a10e2b6b731c1a548f036c48610995565b816018141561124357507f0ba433a63174a90ac20992e75e3095496812b652685b5e1a2eae0b1bf4e8fcd1610995565b816019141561127357507f019ddb9df2bc98d987d0dfeca9d2b643deafab8f7036562e627c3667266a044c610995565b81601a14156112a357507f2d3c88b23175c5a5565db928414c66d1912b11acf974b2e644caaac04739ce99610995565b81601b14156112d357507f2eab55f6ae4e66e32c5189eed5c470840863445760f5ed7e7b69b2a62600f354610995565b81601c141561130257507e2df37a2642621802383cf952bf4dd1f32e05433beeb1fd41031fb7eace979d610995565b81601d141561133257507f104aeb41435db66c3e62feccc1d6f5d98d0a0ed75d1374db457cf462e3a1f427610995565b81601e141561136257507f1f3c6fd858e9a7d4b0d1f38e256a09d81d5a5e3c963987e2d4b814cfab7c6ebb610995565b81601f141561139257507f2c7a07d20dff79d01fecedc1134284a8d08436606c93693b67e333f671bf69cc610995565b6040805162461bcd60e51b8152602060048201526013602482015272496e646578206f7574206f6620626f756e647360681b604482015290519081900360640190fd5b7f2fe54c60d3acabf3343a35b6eba15db4821b340f76e741e2249685ed4899af6c81565b7f000000000000000000000000000000000000000000000000000000000000000081565b60016020526000908152604090205481565b6008546001600160a01b031681565b600354600160201b900463ffffffff1681565b80341461148f5760405162461bcd60e51b8152600401808060200182810382526030815260200180611ab86030913960400191505060405180910390fd5b6005546008546114af916001600160a01b0390911690869085900361173d565b81156114cc576008546114cc906001600160a01b0316848461173d565b8015611565576040516000906001600160a01b0386169083908381818185875af1925050503d806000811461151d576040519150601f19603f3d011682016040523d82523d6000602084013e611522565b606091505b5050905080611563576040516001600160a01b0385169083156108fc029084906000818181858888f19350505050158015611561573d6000803e3d6000fd5b505b505b50505050565b60035460008054909163ffffffff600160201b909104811691811660020a168114156115c85760405162461bcd60e51b8152600401808060200182810382526030815260200180611bca6030913960400191505060405180910390fd5b8083600080805b60005463ffffffff9081169082161015611679576001851661161c578392506115fd8163ffffffff16610d96565b63ffffffff821660009081526001602052604090208590559150611638565b63ffffffff811660009081526001602052604090205492508391505b6116637f000000000000000000000000000000000000000000000000000000000000000084846109b5565b9350600263ffffffff86160494506001016115cf565b505060038054601e63ffffffff8083166001908101821692909206811663ffffffff199093168317845560009283526002602052604090922094909455815493860116600160201b0267ffffffff00000000199093169290921790915550909392505050565b341561171c5760405162461bcd60e51b8152600401808060200182810382526030815260200180611b706030913960400191505060405180910390fd5b60055460085461173b916001600160a01b039091169033903090611794565b565b604080516001600160a01b038416602482015260448082018490528251808303909101815260649091019091526020810180516001600160e01b031663a9059cbb60e01b17905261178f9084906117ea565b505050565b604080516001600160a01b0380861660248301528416604482015260648082018490528251808303909101815260849091019091526020810180516001600160e01b03166323b872dd60e01b1790526115659085905b600061183f826040518060400160405280602081526020017f5361666545524332303a206c6f772d6c6576656c2063616c6c206661696c6564815250856001600160a01b031661189b9092919063ffffffff16565b80519091501561178f5780806020019051602081101561185e57600080fd5b505161178f5760405162461bcd60e51b815260040180806020018281038252602a815260200180611ba0602a913960400191505060405180910390fd5b60606118aa84846000856118b2565b949350505050565b6060824710156118f35760405162461bcd60e51b8152600401808060200182810382526026815260200180611ae86026913960400191505060405180910390fd5b6118fc85611a0d565b61194d576040805162461bcd60e51b815260206004820152601d60248201527f416464726573733a2063616c6c20746f206e6f6e2d636f6e7472616374000000604482015290519081900360640190fd5b600080866001600160a01b031685876040518082805190602001908083835b6020831061198b5780518252601f19909201916020918201910161196c565b6001836020036101000a03801982511681845116808217855250505050505090500191505060006040518083038185875af1925050503d80600081146119ed576040519150601f19603f3d011682016040523d82523d6000602084013e6119f2565b606091505b5091509150611a02828286611a13565b979650505050505050565b3b151590565b60608315611a22575081610b7c565b825115611a325782518084602001fd5b8160405162461bcd60e51b81526004018080602001828103825283818151815260200191508051906020019080838360005b83811015611a7c578181015183820152602001611a64565b50505050905090810190601f168015611aa95780820380516001836020036101000a031916815260200191505b509250505060405180910390fdfe496e636f727265637420726566756e6420616d6f756e742072656365697665642062792074686520636f6e7472616374416464726573733a20696e73756666696369656e742062616c616e636520666f722063616c6c5f72696768742073686f756c6420626520696e7369646520746865206669656c6430644e72e131a029b85045b68181585d2833e84879b9709143e1f593f000000154686520636f6d6d69746d656e7420686173206265656e207375626d69747465644554482076616c756520697320737570706f73656420746f206265203020666f7220455243323020696e7374616e63655361666545524332303a204552433230206f7065726174696f6e20646964206e6f7420737563636565644d65726b6c6520747265652069732066756c6c2e204e6f206d6f7265206c65617665732063616e206265206164646564a26469706673582212206b9939a0f594017510f9ae2cd188b4c404439c878021812247e47ff9604e1a1d64736f6c6343000706003364656e6f6d696e6174696f6e2073686f756c642062652067726561746572207468616e20305f6c6576656c732073686f756c642062652067726561746572207468616e207a65726f",
  "immutableReferences": {
    "1758": [
      {
        "length": 32,
        "start": 5115
      },
      {
        "length": 32,
        "start": 5693
      }
    ],
    "2572": [
      {
        "length": 32,
        "start": 1773
      },
      {
        "length": 32,
        "start": 2280
      }
    ]
  },
  "source": "// https://tornado.cash\n/*\n * d888888P                                           dP              a88888b.                   dP\n *    88                                              88             d8'   `88                   88\n *    88    .d8888b. 88d888b. 88d888b. .d8888b. .d888b88 .d8888b.    88        .d8888b. .d8888b. 88d888b.\n *    88    88'  `88 88'  `88 88'  `88 88'  `88 88'  `88 88'  `88    88        88'  `88 Y8ooooo. 88'  `88\n *    88    88.  .88 88       88    88 88.  .88 88.  .88 88.  .88 dP Y8.   .88 88.  .88       88 88    88\n *    dP    `88888P' dP       dP    dP `88888P8 `88888P8 `88888P' 88  Y88888P' `88888P8 `88888P' dP    dP\n * ooooooooooooooooooooooooooooooooooooooooooooooooooooooooooooooooooooooooooooooooooooooooooooooooooooooo\n */\n\n// SPDX-License-Identifier: MIT\npragma solidity ^0.7.0;\n\nimport \"./Tornado.sol\";\nimport \"@openzeppelin/contracts/token/ERC20/IERC20.sol\";\nimport \"@openzeppelin/contracts/token/ERC20/SafeERC20.sol\";\n\ncontract ERC20Tornado is Tornado {\n  using SafeERC20 for IERC20;\n  IERC20 public token;\n\n  constructor(\n    IVerifier _verifier,\n    IHasher _hasher,\n    uint256 _denomination,\n    uint32 _merkleTreeHeight,\n    IERC20 _token\n  ) Tornado(_verifier, _hasher, _denomination, _merkleTreeHeight) {\n    token = _token;\n  }\n\n  function _processDeposit() internal override {\n    require(msg.value == 0, \"ETH value is supposed to be 0 for ERC20 instance\");\n    token.safeTransferFrom(msg.sender, address(this), denomination);\n  }\n\n  function _processWithdraw(\n    address payable _recipient,\n    address payable _relayer,\n    uint256 _fee,\n    uint256 _refund\n  ) internal override {\n    require(msg.value == _refund, \"Incorrect refund amount received by the contract\");\n\n    token.safeTransfer(_recipient, denomination - _fee);\n    if (_fee > 0) {\n      token.safeTransfer(_relayer, _fee);\n    }\n\n    if (_refund > 0) {\n      (bool success, ) = _recipient.call{ value: _refund }(\"\");\n      if (!success) {\n        // let's return _refund back to the relayer\n        _relayer.transfer(_refund);\n      }\n    }\n  }\n}\n",
  "sourcePath": "/Users/mulish/Desktop/juicebox/tornado-core/contracts/ERC20Tornado.sol",
  "compiler": {
    "name": "solc",
    "version": "0.7.6+commit.7338295f.Emscripten.clang"
  },
  "schemaVersion": "3.4.8",
  "updatedAt": "2022-07-14T17:47:17.928Z",
  "networkType": "ethereum",
  "devdoc": {
    "kind": "dev",
    "methods": {
      "deposit(bytes32)": {
        "details": "Deposit funds into the contract. The caller must send (for ETH) or approve (for ERC20) value equal to or `denomination` of this instance.",
        "params": {
          "_commitment": "the note commitment, which is PedersenHash(nullifier + secret)"
        }
      },
      "getLastRoot()": {
        "details": "Returns the last root"
      },
      "hashLeftRight(address,bytes32,bytes32)": {
        "details": "Hash 2 tree leaves, returns MiMC(_left, _right)"
      },
      "isKnownRoot(bytes32)": {
        "details": "Whether the root is present in the root history"
      },
      "isSpent(bytes32)": {
        "details": "whether a note is already spent "
      },
      "isSpentArray(bytes32[])": {
        "details": "whether an array of notes is already spent "
      },
      "withdraw(bytes,bytes32,bytes32,address,address,uint256,uint256)": {
        "details": "Withdraw a deposit from the contract. `proof` is a zkSNARK proof data, and input is an array of circuit public inputs `input` array consists of: - merkle root of all deposits in the contract - hash of unique deposit nullifier to prevent double spends - the recipient of funds - optional fee that goes to the transaction sender (usually a relay)"
      },
      "zeros(uint256)": {
        "details": "provides Zero (Empty) elements for a MiMC MerkleTree. Up to 32 levels"
      }
    },
    "version": 1
  },
  "userdoc": {
    "kind": "user",
    "methods": {},
    "version": 1
  }
}